{
  "contractName": "HackyAOSRing",
  "abi": [
    {
      "constant": true,
      "inputs": [
        {
          "name": "pubkeys",
          "type": "uint256[]"
        },
        {
          "name": "tees",
          "type": "uint256[]"
        },
        {
          "name": "seed",
          "type": "uint256"
        },
        {
          "name": "message",
          "type": "uint256"
        }
      ],
      "name": "Verify",
      "outputs": [
        {
          "name": "",
          "type": "bool"
        }
      ],
      "payable": false,
      "stateMutability": "pure",
      "type": "function"
    }
  ],
  "bytecode": "0x608060405234801561001057600080fd5b506103f1806100206000396000f300608060405260043610610041576000357c0100000000000000000000000000000000000000000000000000000000900463ffffffff1680633b40da0114610046575b600080fd5b34801561005257600080fd5b506101016004803603810190808035906020019082018035906020019080806020026020016040519081016040528093929190818152602001838360200280828437820191505050505050919291929080359060200190820180359060200190808060200260200160405190810160405280939291908181526020018383602002808284378201915050505050509192919290803590602001909291908035906020019092919050505061011b565b604051808215151515815260200191505060405180910390f35b60008060008060008060028a5181151561013157fe5b0614151561013e57600080fd5b6000895111151561014e57600080fd5b8693506002895181151561015e57fe5b04925060009150600090505b828110156101dc576101c7898381518110151561018357fe5b906020019060200201518a6001850181518110151561019e57fe5b90602001906020020151888b858151811015156101b757fe5b90602001906020020151886101ed565b9350600282019150808060010191505061016a565b868414945050505050949350505050565b60008060606101fe858989876102c4565b915087878373ffffffffffffffffffffffffffffffffffffffff1688604051602001808581526020018481526020018381526020018281526020019450505050506040516020818303038152906040529050806040518082805190602001908083835b6020831015156102865780518252602082019150602081019050602083039250610261565b6001836020036101000a0380198251168184511680821785525050505050509050019150506040518091039020600190049250505095945050505050565b6000807ffffffffffffffffffffffffffffffffebaaedce6af48a03bbfd25e8cd03641419050808015156102f457fe5b858288840381151561030257fe5b06099550600186600102600060028781151561031a57fe5b06141561032857601b61032b565b601c5b876001028480151561033957fe5b898809600102604051600081526020016040526040518085600019166000191681526020018460ff1660ff1681526020018360001916600019168152602001826000191660001916815260200194505050505060206040516020810390808403906000865af11580156103b0573d6000803e3d6000fd5b505050602060405103519150509493505050505600a165627a7a72305820505b3c5d9583670d7cfaf61820fb178a4f8e69518af325e363d663952aa72c9c0029",
  "source": "pragma solidity 0.4.24;\r\n\r\n// Taken from https://github.com/HarryR/solcrypto/blob/master/contracts/HackyAOSRing.sol and slightly modified by us\r\ncontract HackyAOSRing{\r\n\t  \r\n    function sbmul_add_smul(uint256 a, uint256 x, uint256 y, uint256 c)\r\n        internal pure returns(address)\r\n    {\r\n        uint256 Q = 0xFFFFFFFFFFFFFFFFFFFFFFFFFFFFFFFEBAAEDCE6AF48A03BBFD25E8CD0364141;\r\n\r\n        a = mulmod((Q - a) % Q, x, Q);\r\n\r\n        return ecrecover(\r\n        \tbytes32(a),\t\t\t\t\t\t// 'msghash'\r\n        \ty % 2 != 0 ? 28 : 27,\t\t// v\r\n        \tbytes32(x),\t\t\t\t\t// r\r\n        \tbytes32(mulmod(c, x, Q)));\t// s\r\n    }\r\n\r\n\r\n\tfunction HackySchnorrCalc( uint256 x, uint256 y, uint256 message, uint256 t, uint256 s )\r\n\t\tinternal pure returns(uint256)\r\n\t{\r\n\t\taddress hashed_point = sbmul_add_smul(t, x, y, s);\r\n\r\n\t\tbytes memory ring_link = abi.encodePacked(x, y, uint256(hashed_point), message);\r\n\r\n\t\treturn uint256(keccak256(ring_link));\r\n\t}\r\n\r\n\r\n\t/**\r\n\t* @notice verify a ring signature\r\n\t* @param pubkeys the addresses of the ring (addresses = [key1-x, key1-y, key2-x, key2-y, ..., keyN-x, keyN-y])\r\n\t* @param tees the tees of the ring (tees = [tee1, tee2, ..., teeN])\r\n\t* @param seed the seed of the ring\r\n\t* @param message the message to verify\r\n\t*/\r\n\tfunction Verify( uint256[] pubkeys, uint256[] tees, uint256 seed, uint256 message )\r\n\t\tpublic pure returns (bool)\r\n\t{\r\n\t\trequire( pubkeys.length % 2 == 0 );\r\n\t\trequire( pubkeys.length > 0 );\r\n\r\n\t\tuint256 c = seed;\r\n\t\tuint256 nkeys = pubkeys.length / 2;\r\n\t\tuint256 j = 0;\r\n\r\n\t\tfor( uint256 i = 0; i < nkeys; i++ )\r\n\t\t{\r\n\t\t\tc = HackySchnorrCalc(pubkeys[j], pubkeys[j+1], message, tees[i], c);\r\n\t\t\tj += 2;\r\n\t\t}\r\n\r\n\t\treturn c == seed;\r\n\t}\r\n}\r\n\r\n",
  "sourcePath": "C:\\Users\\hervi\\Documents\\Blockchain Projects\\ETHDenver2023\\ECDSA-Ring-signature-and-on-chain-verification-\\truffle\\contracts\\hackyAOS.sol",
  "compiler": {
    "name": "solc",
    "version": "0.4.24+commit.e67f0147.Emscripten.clang"
  },
  "schemaVersion": "3.4.12",
  "updatedAt": "2023-03-05T03:10:11.821Z",
  "networkType": "ethereum",
  "devdoc": {
    "methods": {
      "Verify(uint256[],uint256[],uint256,uint256)": {
        "params": {
          "message": "the message to verify\r",
          "pubkeys": "the addresses of the ring (addresses = [key1-x, key1-y, key2-x, key2-y, ..., keyN-x, keyN-y])\r",
          "seed": "the seed of the ring\r",
          "tees": "the tees of the ring (tees = [tee1, tee2, ..., teeN])\r"
        }
      }
    }
  },
  "userdoc": {
    "methods": {
      "Verify(uint256[],uint256[],uint256,uint256)": {
        "notice": "verify a ring signature\r"
      }
    }
  }
}